{"contracts/RecordTransactionTracker.sol":{"RecordTransactionTracker":{"abi":[{"anonymous":false,"inputs":[{"indexed":true,"internalType":"address","name":"user","type":"address"},{"indexed":false,"internalType":"string","name":"recordId","type":"string"},{"indexed":false,"internalType":"string","name":"recordHash","type":"string"},{"indexed":false,"internalType":"string","name":"patientId","type":"string"},{"indexed":false,"internalType":"string","name":"createdBy","type":"string"},{"indexed":false,"internalType":"uint256","name":"timestamp","type":"uint256"}],"name":"RecordAdded","type":"event"},{"anonymous":false,"inputs":[{"indexed":true,"internalType":"address","name":"admin","type":"address"},{"indexed":false,"internalType":"string","name":"recordId","type":"string"},{"indexed":false,"internalType":"string","name":"recordHash","type":"string"},{"indexed":false,"internalType":"uint256","name":"timestamp","type":"uint256"}],"name":"RecordApproved","type":"event"},{"anonymous":false,"inputs":[{"indexed":true,"internalType":"address","name":"user","type":"address"},{"indexed":false,"internalType":"string","name":"recordId","type":"string"},{"indexed":false,"internalType":"uint256","name":"timestamp","type":"uint256"}],"name":"RecordDeleted","type":"event"},{"anonymous":false,"inputs":[{"indexed":true,"internalType":"address","name":"user","type":"address"},{"indexed":false,"internalType":"string","name":"recordId","type":"string"},{"indexed":false,"internalType":"uint256","name":"timestamp","type":"uint256"}],"name":"RecordModified","type":"event"},{"anonymous":false,"inputs":[{"indexed":true,"internalType":"address","name":"admin","type":"address"},{"indexed":false,"internalType":"string","name":"requestId","type":"string"},{"indexed":false,"internalType":"uint256","name":"timestamp","type":"uint256"}],"name":"RequestApproved","type":"event"},{"anonymous":false,"inputs":[{"indexed":true,"internalType":"address","name":"admin","type":"address"},{"indexed":false,"internalType":"string","name":"requestId","type":"string"},{"indexed":false,"internalType":"uint256","name":"timestamp","type":"uint256"}],"name":"RequestRejected","type":"event"},{"anonymous":false,"inputs":[{"indexed":true,"internalType":"address","name":"user","type":"address"},{"indexed":false,"internalType":"string","name":"requestId","type":"string"},{"indexed":false,"internalType":"string","name":"recordHash","type":"string"},{"indexed":false,"internalType":"string","name":"patientId","type":"string"},{"indexed":false,"internalType":"uint256","name":"timestamp","type":"uint256"}],"name":"RequestSubmitted","type":"event"},{"inputs":[{"internalType":"string","name":"recordId","type":"string"},{"internalType":"string","name":"recordHash","type":"string"},{"internalType":"string","name":"patientId","type":"string"},{"internalType":"string","name":"createdBy","type":"string"}],"name":"logRecordAdded","outputs":[],"stateMutability":"nonpayable","type":"function"},{"inputs":[{"internalType":"string","name":"recordId","type":"string"},{"internalType":"string","name":"recordHash","type":"string"}],"name":"logRecordApproved","outputs":[],"stateMutability":"nonpayable","type":"function"},{"inputs":[{"internalType":"string","name":"recordId","type":"string"}],"name":"logRecordDeleted","outputs":[],"stateMutability":"nonpayable","type":"function"},{"inputs":[{"internalType":"string","name":"recordId","type":"string"}],"name":"logRecordModified","outputs":[],"stateMutability":"nonpayable","type":"function"},{"inputs":[{"internalType":"string","name":"requestId","type":"string"}],"name":"logRequestApproved","outputs":[],"stateMutability":"nonpayable","type":"function"},{"inputs":[{"internalType":"string","name":"requestId","type":"string"}],"name":"logRequestRejected","outputs":[],"stateMutability":"nonpayable","type":"function"},{"inputs":[{"internalType":"string","name":"requestId","type":"string"},{"internalType":"string","name":"recordHash","type":"string"},{"internalType":"string","name":"patientId","type":"string"}],"name":"logRequestSubmitted","outputs":[],"stateMutability":"nonpayable","type":"function"}],"evm":{"bytecode":{"linkReferences":{},"object":"6080604052348015600f57600080fd5b506109428061001f6000396000f3fe608060405234801561001057600080fd5b506004361061007d5760003560e01c806361bcba681161005b57806361bcba68146100d65780637b714de3146100f2578063ef5408221461010e578063fba568bc1461012a5761007d565b8063066b748714610082578063202577411461009e5780635eab0bef146100ba575b600080fd5b61009c600480360381019061009791906104f7565b610146565b005b6100b860048036038101906100b39190610540565b610199565b005b6100d460048036038101906100cf91906104f7565b6101f5565b005b6100f060048036038101906100eb9190610617565b610248565b005b61010c6004803603810190610107919061068f565b61029e565b005b610128600480360381019061012391906104f7565b6102f7565b005b610144600480360381019061013f91906104f7565b61034a565b005b3373ffffffffffffffffffffffffffffffffffffffff167f5e1be58828fc8c0e6d294648391344c8d44bae5de1c837029b45051e28a3e46e824260405161018e9291906107ce565b60405180910390a250565b3373ffffffffffffffffffffffffffffffffffffffff167f6825b9eeb3ef21f749762d3c21e19933fcd32875b413b189e5b9acd6c099e0ea85858585426040516101e79594939291906107fe565b60405180910390a250505050565b3373ffffffffffffffffffffffffffffffffffffffff167fd63b59090395fecd4ecff00e977315e17546be5fd9865c4c03e8bf7a080de735824260405161023d9291906107ce565b60405180910390a250565b3373ffffffffffffffffffffffffffffffffffffffff167f7f5cb8150978975c77ec5cfde010510a787c6ba775977be365baa9e13fcde5e88383426040516102929392919061086d565b60405180910390a25050565b3373ffffffffffffffffffffffffffffffffffffffff167fb2b81265c738089f33eb909e00f2f813339487cbca6aa61a4358aa7b2f911297848484426040516102ea94939291906108b2565b60405180910390a2505050565b3373ffffffffffffffffffffffffffffffffffffffff167f0ebd439d2ddefff7b42b34ed0b3336c0cba0be513d3bf9f3f6527ef33b1c19ca824260405161033f9291906107ce565b60405180910390a250565b3373ffffffffffffffffffffffffffffffffffffffff167f7af5ac839f0110f7b7003e5e5f0cdbbfd477c708c6393017e178a5da3d04282c82426040516103929291906107ce565b60405180910390a250565b6000604051905090565b600080fd5b600080fd5b600080fd5b600080fd5b6000601f19601f8301169050919050565b7f4e487b7100000000000000000000000000000000000000000000000000000000600052604160045260246000fd5b610404826103bb565b810181811067ffffffffffffffff82111715610423576104226103cc565b5b80604052505050565b600061043661039d565b905061044282826103fb565b919050565b600067ffffffffffffffff821115610462576104616103cc565b5b61046b826103bb565b9050602081019050919050565b82818337600083830152505050565b600061049a61049584610447565b61042c565b9050828152602081018484840111156104b6576104b56103b6565b5b6104c1848285610478565b509392505050565b600082601f8301126104de576104dd6103b1565b5b81356104ee848260208601610487565b91505092915050565b60006020828403121561050d5761050c6103a7565b5b600082013567ffffffffffffffff81111561052b5761052a6103ac565b5b610537848285016104c9565b91505092915050565b6000806000806080858703121561055a576105596103a7565b5b600085013567ffffffffffffffff811115610578576105776103ac565b5b610584878288016104c9565b945050602085013567ffffffffffffffff8111156105a5576105a46103ac565b5b6105b1878288016104c9565b935050604085013567ffffffffffffffff8111156105d2576105d16103ac565b5b6105de878288016104c9565b925050606085013567ffffffffffffffff8111156105ff576105fe6103ac565b5b61060b878288016104c9565b91505092959194509250565b6000806040838503121561062e5761062d6103a7565b5b600083013567ffffffffffffffff81111561064c5761064b6103ac565b5b610658858286016104c9565b925050602083013567ffffffffffffffff811115610679576106786103ac565b5b610685858286016104c9565b9150509250929050565b6000806000606084860312156106a8576106a76103a7565b5b600084013567ffffffffffffffff8111156106c6576106c56103ac565b5b6106d2868287016104c9565b935050602084013567ffffffffffffffff8111156106f3576106f26103ac565b5b6106ff868287016104c9565b925050604084013567ffffffffffffffff8111156107205761071f6103ac565b5b61072c868287016104c9565b9150509250925092565b600081519050919050565b600082825260208201905092915050565b60005b83811015610770578082015181840152602081019050610755565b60008484015250505050565b600061078782610736565b6107918185610741565b93506107a1818560208601610752565b6107aa816103bb565b840191505092915050565b6000819050919050565b6107c8816107b5565b82525050565b600060408201905081810360008301526107e8818561077c565b90506107f760208301846107bf565b9392505050565b600060a0820190508181036000830152610818818861077c565b9050818103602083015261082c818761077c565b90508181036040830152610840818661077c565b90508181036060830152610854818561077c565b905061086360808301846107bf565b9695505050505050565b60006060820190508181036000830152610887818661077c565b9050818103602083015261089b818561077c565b90506108aa60408301846107bf565b949350505050565b600060808201905081810360008301526108cc818761077c565b905081810360208301526108e0818661077c565b905081810360408301526108f4818561077c565b905061090360608301846107bf565b9594505050505056fea2646970667358221220e29a2da15ad07ca0e4c5bd24d1d93901a6fbd55c3c523058fbc751693d0c094764736f6c634300081c0033","opcodes":"PUSH1 0x80 PUSH1 0x40 MSTORE CALLVALUE DUP1 ISZERO PUSH1 0xF JUMPI PUSH1 0x0 DUP1 REVERT JUMPDEST POP PUSH2 0x942 DUP1 PUSH2 0x1F PUSH1 0x0 CODECOPY PUSH1 0x0 RETURN INVALID PUSH1 0x80 PUSH1 0x40 MSTORE CALLVALUE DUP1 ISZERO PUSH2 0x10 JUMPI PUSH1 0x0 DUP1 REVERT JUMPDEST POP PUSH1 0x4 CALLDATASIZE LT PUSH2 0x7D JUMPI PUSH1 0x0 CALLDATALOAD PUSH1 0xE0 SHR DUP1 PUSH4 0x61BCBA68 GT PUSH2 0x5B JUMPI DUP1 PUSH4 0x61BCBA68 EQ PUSH2 0xD6 JUMPI DUP1 PUSH4 0x7B714DE3 EQ PUSH2 0xF2 JUMPI DUP1 PUSH4 0xEF540822 EQ PUSH2 0x10E JUMPI DUP1 PUSH4 0xFBA568BC EQ PUSH2 0x12A JUMPI PUSH2 0x7D JUMP JUMPDEST DUP1 PUSH4 0x66B7487 EQ PUSH2 0x82 JUMPI DUP1 PUSH4 0x20257741 EQ PUSH2 0x9E JUMPI DUP1 PUSH4 0x5EAB0BEF EQ PUSH2 0xBA JUMPI JUMPDEST PUSH1 0x0 DUP1 REVERT JUMPDEST PUSH2 0x9C PUSH1 0x4 DUP1 CALLDATASIZE SUB DUP2 ADD SWAP1 PUSH2 0x97 SWAP2 SWAP1 PUSH2 0x4F7 JUMP JUMPDEST PUSH2 0x146 JUMP JUMPDEST STOP JUMPDEST PUSH2 0xB8 PUSH1 0x4 DUP1 CALLDATASIZE SUB DUP2 ADD SWAP1 PUSH2 0xB3 SWAP2 SWAP1 PUSH2 0x540 JUMP JUMPDEST PUSH2 0x199 JUMP JUMPDEST STOP JUMPDEST PUSH2 0xD4 PUSH1 0x4 DUP1 CALLDATASIZE SUB DUP2 ADD SWAP1 PUSH2 0xCF SWAP2 SWAP1 PUSH2 0x4F7 JUMP JUMPDEST PUSH2 0x1F5 JUMP JUMPDEST STOP JUMPDEST PUSH2 0xF0 PUSH1 0x4 DUP1 CALLDATASIZE SUB DUP2 ADD SWAP1 PUSH2 0xEB SWAP2 SWAP1 PUSH2 0x617 JUMP JUMPDEST PUSH2 0x248 JUMP JUMPDEST STOP JUMPDEST PUSH2 0x10C PUSH1 0x4 DUP1 CALLDATASIZE SUB DUP2 ADD SWAP1 PUSH2 0x107 SWAP2 SWAP1 PUSH2 0x68F JUMP JUMPDEST PUSH2 0x29E JUMP JUMPDEST STOP JUMPDEST PUSH2 0x128 PUSH1 0x4 DUP1 CALLDATASIZE SUB DUP2 ADD SWAP1 PUSH2 0x123 SWAP2 SWAP1 PUSH2 0x4F7 JUMP JUMPDEST PUSH2 0x2F7 JUMP JUMPDEST STOP JUMPDEST PUSH2 0x144 PUSH1 0x4 DUP1 CALLDATASIZE SUB DUP2 ADD SWAP1 PUSH2 0x13F SWAP2 SWAP1 PUSH2 0x4F7 JUMP JUMPDEST PUSH2 0x34A JUMP JUMPDEST STOP JUMPDEST CALLER PUSH20 0xFFFFFFFFFFFFFFFFFFFFFFFFFFFFFFFFFFFFFFFF AND PUSH32 0x5E1BE58828FC8C0E6D294648391344C8D44BAE5DE1C837029B45051E28A3E46E DUP3 TIMESTAMP PUSH1 0x40 MLOAD PUSH2 0x18E SWAP3 SWAP2 SWAP1 PUSH2 0x7CE JUMP JUMPDEST PUSH1 0x40 MLOAD DUP1 SWAP2 SUB SWAP1 LOG2 POP JUMP JUMPDEST CALLER PUSH20 0xFFFFFFFFFFFFFFFFFFFFFFFFFFFFFFFFFFFFFFFF AND PUSH32 0x6825B9EEB3EF21F749762D3C21E19933FCD32875B413B189E5B9ACD6C099E0EA DUP6 DUP6 DUP6 DUP6 TIMESTAMP PUSH1 0x40 MLOAD PUSH2 0x1E7 SWAP6 SWAP5 SWAP4 SWAP3 SWAP2 SWAP1 PUSH2 0x7FE JUMP JUMPDEST PUSH1 0x40 MLOAD DUP1 SWAP2 SUB SWAP1 LOG2 POP POP POP POP JUMP JUMPDEST CALLER PUSH20 0xFFFFFFFFFFFFFFFFFFFFFFFFFFFFFFFFFFFFFFFF AND PUSH32 0xD63B59090395FECD4ECFF00E977315E17546BE5FD9865C4C03E8BF7A080DE735 DUP3 TIMESTAMP PUSH1 0x40 MLOAD PUSH2 0x23D SWAP3 SWAP2 SWAP1 PUSH2 0x7CE JUMP JUMPDEST PUSH1 0x40 MLOAD DUP1 SWAP2 SUB SWAP1 LOG2 POP JUMP JUMPDEST CALLER PUSH20 0xFFFFFFFFFFFFFFFFFFFFFFFFFFFFFFFFFFFFFFFF AND PUSH32 0x7F5CB8150978975C77EC5CFDE010510A787C6BA775977BE365BAA9E13FCDE5E8 DUP4 DUP4 TIMESTAMP PUSH1 0x40 MLOAD PUSH2 0x292 SWAP4 SWAP3 SWAP2 SWAP1 PUSH2 0x86D JUMP JUMPDEST PUSH1 0x40 MLOAD DUP1 SWAP2 SUB SWAP1 LOG2 POP POP JUMP JUMPDEST CALLER PUSH20 0xFFFFFFFFFFFFFFFFFFFFFFFFFFFFFFFFFFFFFFFF AND PUSH32 0xB2B81265C738089F33EB909E00F2F813339487CBCA6AA61A4358AA7B2F911297 DUP5 DUP5 DUP5 TIMESTAMP PUSH1 0x40 MLOAD PUSH2 0x2EA SWAP5 SWAP4 SWAP3 SWAP2 SWAP1 PUSH2 0x8B2 JUMP JUMPDEST PUSH1 0x40 MLOAD DUP1 SWAP2 SUB SWAP1 LOG2 POP POP POP JUMP JUMPDEST CALLER PUSH20 0xFFFFFFFFFFFFFFFFFFFFFFFFFFFFFFFFFFFFFFFF AND PUSH32 0xEBD439D2DDEFFF7B42B34ED0B3336C0CBA0BE513D3BF9F3F6527EF33B1C19CA DUP3 TIMESTAMP PUSH1 0x40 MLOAD PUSH2 0x33F SWAP3 SWAP2 SWAP1 PUSH2 0x7CE JUMP JUMPDEST PUSH1 0x40 MLOAD DUP1 SWAP2 SUB SWAP1 LOG2 POP JUMP JUMPDEST CALLER PUSH20 0xFFFFFFFFFFFFFFFFFFFFFFFFFFFFFFFFFFFFFFFF AND PUSH32 0x7AF5AC839F0110F7B7003E5E5F0CDBBFD477C708C6393017E178A5DA3D04282C DUP3 TIMESTAMP PUSH1 0x40 MLOAD PUSH2 0x392 SWAP3 SWAP2 SWAP1 PUSH2 0x7CE JUMP JUMPDEST PUSH1 0x40 MLOAD DUP1 SWAP2 SUB SWAP1 LOG2 POP JUMP JUMPDEST PUSH1 0x0 PUSH1 0x40 MLOAD SWAP1 POP SWAP1 JUMP JUMPDEST PUSH1 0x0 DUP1 REVERT JUMPDEST PUSH1 0x0 DUP1 REVERT JUMPDEST PUSH1 0x0 DUP1 REVERT JUMPDEST PUSH1 0x0 DUP1 REVERT JUMPDEST PUSH1 0x0 PUSH1 0x1F NOT PUSH1 0x1F DUP4 ADD AND SWAP1 POP SWAP2 SWAP1 POP JUMP JUMPDEST PUSH32 0x4E487B7100000000000000000000000000000000000000000000000000000000 PUSH1 0x0 MSTORE PUSH1 0x41 PUSH1 0x4 MSTORE PUSH1 0x24 PUSH1 0x0 REVERT JUMPDEST PUSH2 0x404 DUP3 PUSH2 0x3BB JUMP JUMPDEST DUP2 ADD DUP2 DUP2 LT PUSH8 0xFFFFFFFFFFFFFFFF DUP3 GT OR ISZERO PUSH2 0x423 JUMPI PUSH2 0x422 PUSH2 0x3CC JUMP JUMPDEST JUMPDEST DUP1 PUSH1 0x40 MSTORE POP POP POP JUMP JUMPDEST PUSH1 0x0 PUSH2 0x436 PUSH2 0x39D JUMP JUMPDEST SWAP1 POP PUSH2 0x442 DUP3 DUP3 PUSH2 0x3FB JUMP JUMPDEST SWAP2 SWAP1 POP JUMP JUMPDEST PUSH1 0x0 PUSH8 0xFFFFFFFFFFFFFFFF DUP3 GT ISZERO PUSH2 0x462 JUMPI PUSH2 0x461 PUSH2 0x3CC JUMP JUMPDEST JUMPDEST PUSH2 0x46B DUP3 PUSH2 0x3BB JUMP JUMPDEST SWAP1 POP PUSH1 0x20 DUP2 ADD SWAP1 POP SWAP2 SWAP1 POP JUMP JUMPDEST DUP3 DUP2 DUP4 CALLDATACOPY PUSH1 0x0 DUP4 DUP4 ADD MSTORE POP POP POP JUMP JUMPDEST PUSH1 0x0 PUSH2 0x49A PUSH2 0x495 DUP5 PUSH2 0x447 JUMP JUMPDEST PUSH2 0x42C JUMP JUMPDEST SWAP1 POP DUP3 DUP2 MSTORE PUSH1 0x20 DUP2 ADD DUP5 DUP5 DUP5 ADD GT ISZERO PUSH2 0x4B6 JUMPI PUSH2 0x4B5 PUSH2 0x3B6 JUMP JUMPDEST JUMPDEST PUSH2 0x4C1 DUP5 DUP3 DUP6 PUSH2 0x478 JUMP JUMPDEST POP SWAP4 SWAP3 POP POP POP JUMP JUMPDEST PUSH1 0x0 DUP3 PUSH1 0x1F DUP4 ADD SLT PUSH2 0x4DE JUMPI PUSH2 0x4DD PUSH2 0x3B1 JUMP JUMPDEST JUMPDEST DUP2 CALLDATALOAD PUSH2 0x4EE DUP5 DUP3 PUSH1 0x20 DUP7 ADD PUSH2 0x487 JUMP JUMPDEST SWAP2 POP POP SWAP3 SWAP2 POP POP JUMP JUMPDEST PUSH1 0x0 PUSH1 0x20 DUP3 DUP5 SUB SLT ISZERO PUSH2 0x50D JUMPI PUSH2 0x50C PUSH2 0x3A7 JUMP JUMPDEST JUMPDEST PUSH1 0x0 DUP3 ADD CALLDATALOAD PUSH8 0xFFFFFFFFFFFFFFFF DUP2 GT ISZERO PUSH2 0x52B JUMPI PUSH2 0x52A PUSH2 0x3AC JUMP JUMPDEST JUMPDEST PUSH2 0x537 DUP5 DUP3 DUP6 ADD PUSH2 0x4C9 JUMP JUMPDEST SWAP2 POP POP SWAP3 SWAP2 POP POP JUMP JUMPDEST PUSH1 0x0 DUP1 PUSH1 0x0 DUP1 PUSH1 0x80 DUP6 DUP8 SUB SLT ISZERO PUSH2 0x55A JUMPI PUSH2 0x559 PUSH2 0x3A7 JUMP JUMPDEST JUMPDEST PUSH1 0x0 DUP6 ADD CALLDATALOAD PUSH8 0xFFFFFFFFFFFFFFFF DUP2 GT ISZERO PUSH2 0x578 JUMPI PUSH2 0x577 PUSH2 0x3AC JUMP JUMPDEST JUMPDEST PUSH2 0x584 DUP8 DUP3 DUP9 ADD PUSH2 0x4C9 JUMP JUMPDEST SWAP5 POP POP PUSH1 0x20 DUP6 ADD CALLDATALOAD PUSH8 0xFFFFFFFFFFFFFFFF DUP2 GT ISZERO PUSH2 0x5A5 JUMPI PUSH2 0x5A4 PUSH2 0x3AC JUMP JUMPDEST JUMPDEST PUSH2 0x5B1 DUP8 DUP3 DUP9 ADD PUSH2 0x4C9 JUMP JUMPDEST SWAP4 POP POP PUSH1 0x40 DUP6 ADD CALLDATALOAD PUSH8 0xFFFFFFFFFFFFFFFF DUP2 GT ISZERO PUSH2 0x5D2 JUMPI PUSH2 0x5D1 PUSH2 0x3AC JUMP JUMPDEST JUMPDEST PUSH2 0x5DE DUP8 DUP3 DUP9 ADD PUSH2 0x4C9 JUMP JUMPDEST SWAP3 POP POP PUSH1 0x60 DUP6 ADD CALLDATALOAD PUSH8 0xFFFFFFFFFFFFFFFF DUP2 GT ISZERO PUSH2 0x5FF JUMPI PUSH2 0x5FE PUSH2 0x3AC JUMP JUMPDEST JUMPDEST PUSH2 0x60B DUP8 DUP3 DUP9 ADD PUSH2 0x4C9 JUMP JUMPDEST SWAP2 POP POP SWAP3 SWAP6 SWAP2 SWAP5 POP SWAP3 POP JUMP JUMPDEST PUSH1 0x0 DUP1 PUSH1 0x40 DUP4 DUP6 SUB SLT ISZERO PUSH2 0x62E JUMPI PUSH2 0x62D PUSH2 0x3A7 JUMP JUMPDEST JUMPDEST PUSH1 0x0 DUP4 ADD CALLDATALOAD PUSH8 0xFFFFFFFFFFFFFFFF DUP2 GT ISZERO PUSH2 0x64C JUMPI PUSH2 0x64B PUSH2 0x3AC JUMP JUMPDEST JUMPDEST PUSH2 0x658 DUP6 DUP3 DUP7 ADD PUSH2 0x4C9 JUMP JUMPDEST SWAP3 POP POP PUSH1 0x20 DUP4 ADD CALLDATALOAD PUSH8 0xFFFFFFFFFFFFFFFF DUP2 GT ISZERO PUSH2 0x679 JUMPI PUSH2 0x678 PUSH2 0x3AC JUMP JUMPDEST JUMPDEST PUSH2 0x685 DUP6 DUP3 DUP7 ADD PUSH2 0x4C9 JUMP JUMPDEST SWAP2 POP POP SWAP3 POP SWAP3 SWAP1 POP JUMP JUMPDEST PUSH1 0x0 DUP1 PUSH1 0x0 PUSH1 0x60 DUP5 DUP7 SUB SLT ISZERO PUSH2 0x6A8 JUMPI PUSH2 0x6A7 PUSH2 0x3A7 JUMP JUMPDEST JUMPDEST PUSH1 0x0 DUP5 ADD CALLDATALOAD PUSH8 0xFFFFFFFFFFFFFFFF DUP2 GT ISZERO PUSH2 0x6C6 JUMPI PUSH2 0x6C5 PUSH2 0x3AC JUMP JUMPDEST JUMPDEST PUSH2 0x6D2 DUP7 DUP3 DUP8 ADD PUSH2 0x4C9 JUMP JUMPDEST SWAP4 POP POP PUSH1 0x20 DUP5 ADD CALLDATALOAD PUSH8 0xFFFFFFFFFFFFFFFF DUP2 GT ISZERO PUSH2 0x6F3 JUMPI PUSH2 0x6F2 PUSH2 0x3AC JUMP JUMPDEST JUMPDEST PUSH2 0x6FF DUP7 DUP3 DUP8 ADD PUSH2 0x4C9 JUMP JUMPDEST SWAP3 POP POP PUSH1 0x40 DUP5 ADD CALLDATALOAD PUSH8 0xFFFFFFFFFFFFFFFF DUP2 GT ISZERO PUSH2 0x720 JUMPI PUSH2 0x71F PUSH2 0x3AC JUMP JUMPDEST JUMPDEST PUSH2 0x72C DUP7 DUP3 DUP8 ADD PUSH2 0x4C9 JUMP JUMPDEST SWAP2 POP POP SWAP3 POP SWAP3 POP SWAP3 JUMP JUMPDEST PUSH1 0x0 DUP2 MLOAD SWAP1 POP SWAP2 SWAP1 POP JUMP JUMPDEST PUSH1 0x0 DUP3 DUP3 MSTORE PUSH1 0x20 DUP3 ADD SWAP1 POP SWAP3 SWAP2 POP POP JUMP JUMPDEST PUSH1 0x0 JUMPDEST DUP4 DUP2 LT ISZERO PUSH2 0x770 JUMPI DUP1 DUP3 ADD MLOAD DUP2 DUP5 ADD MSTORE PUSH1 0x20 DUP2 ADD SWAP1 POP PUSH2 0x755 JUMP JUMPDEST PUSH1 0x0 DUP5 DUP5 ADD MSTORE POP POP POP POP JUMP JUMPDEST PUSH1 0x0 PUSH2 0x787 DUP3 PUSH2 0x736 JUMP JUMPDEST PUSH2 0x791 DUP2 DUP6 PUSH2 0x741 JUMP JUMPDEST SWAP4 POP PUSH2 0x7A1 DUP2 DUP6 PUSH1 0x20 DUP7 ADD PUSH2 0x752 JUMP JUMPDEST PUSH2 0x7AA DUP2 PUSH2 0x3BB JUMP JUMPDEST DUP5 ADD SWAP2 POP POP SWAP3 SWAP2 POP POP JUMP JUMPDEST PUSH1 0x0 DUP2 SWAP1 POP SWAP2 SWAP1 POP JUMP JUMPDEST PUSH2 0x7C8 DUP2 PUSH2 0x7B5 JUMP JUMPDEST DUP3 MSTORE POP POP JUMP JUMPDEST PUSH1 0x0 PUSH1 0x40 DUP3 ADD SWAP1 POP DUP2 DUP2 SUB PUSH1 0x0 DUP4 ADD MSTORE PUSH2 0x7E8 DUP2 DUP6 PUSH2 0x77C JUMP JUMPDEST SWAP1 POP PUSH2 0x7F7 PUSH1 0x20 DUP4 ADD DUP5 PUSH2 0x7BF JUMP JUMPDEST SWAP4 SWAP3 POP POP POP JUMP JUMPDEST PUSH1 0x0 PUSH1 0xA0 DUP3 ADD SWAP1 POP DUP2 DUP2 SUB PUSH1 0x0 DUP4 ADD MSTORE PUSH2 0x818 DUP2 DUP9 PUSH2 0x77C JUMP JUMPDEST SWAP1 POP DUP2 DUP2 SUB PUSH1 0x20 DUP4 ADD MSTORE PUSH2 0x82C DUP2 DUP8 PUSH2 0x77C JUMP JUMPDEST SWAP1 POP DUP2 DUP2 SUB PUSH1 0x40 DUP4 ADD MSTORE PUSH2 0x840 DUP2 DUP7 PUSH2 0x77C JUMP JUMPDEST SWAP1 POP DUP2 DUP2 SUB PUSH1 0x60 DUP4 ADD MSTORE PUSH2 0x854 DUP2 DUP6 PUSH2 0x77C JUMP JUMPDEST SWAP1 POP PUSH2 0x863 PUSH1 0x80 DUP4 ADD DUP5 PUSH2 0x7BF JUMP JUMPDEST SWAP7 SWAP6 POP POP POP POP POP POP JUMP JUMPDEST PUSH1 0x0 PUSH1 0x60 DUP3 ADD SWAP1 POP DUP2 DUP2 SUB PUSH1 0x0 DUP4 ADD MSTORE PUSH2 0x887 DUP2 DUP7 PUSH2 0x77C JUMP JUMPDEST SWAP1 POP DUP2 DUP2 SUB PUSH1 0x20 DUP4 ADD MSTORE PUSH2 0x89B DUP2 DUP6 PUSH2 0x77C JUMP JUMPDEST SWAP1 POP PUSH2 0x8AA PUSH1 0x40 DUP4 ADD DUP5 PUSH2 0x7BF JUMP JUMPDEST SWAP5 SWAP4 POP POP POP POP JUMP JUMPDEST PUSH1 0x0 PUSH1 0x80 DUP3 ADD SWAP1 POP DUP2 DUP2 SUB PUSH1 0x0 DUP4 ADD MSTORE PUSH2 0x8CC DUP2 DUP8 PUSH2 0x77C JUMP JUMPDEST SWAP1 POP DUP2 DUP2 SUB PUSH1 0x20 DUP4 ADD MSTORE PUSH2 0x8E0 DUP2 DUP7 PUSH2 0x77C JUMP JUMPDEST SWAP1 POP DUP2 DUP2 SUB PUSH1 0x40 DUP4 ADD MSTORE PUSH2 0x8F4 DUP2 DUP6 PUSH2 0x77C JUMP JUMPDEST SWAP1 POP PUSH2 0x903 PUSH1 0x60 DUP4 ADD DUP5 PUSH2 0x7BF JUMP JUMPDEST SWAP6 SWAP5 POP POP POP POP POP JUMP INVALID LOG2 PUSH5 0x6970667358 0x22 SLT KECCAK256 0xE2 SWAP11 0x2D LOG1 GAS 0xD0 PUSH29 0xA0E4C5BD24D1D93901A6FBD55C3C523058FBC751693D0C094764736F6C PUSH4 0x4300081C STOP CALLER "},"methodIdentifiers":{"logRecordAdded(string,string,string,string)":"20257741","logRecordApproved(string,string)":"61bcba68","logRecordDeleted(string)":"066b7487","logRecordModified(string)":"fba568bc","logRequestApproved(string)":"ef540822","logRequestRejected(string)":"5eab0bef","logRequestSubmitted(string,string,string)":"7b714de3"}}}}}